:020000040000FA
:10000000580320206D010000710100007301000001
:1000100000000000000000000000000000000000E0
:10002000000000000000000000000000750100005A
:1000300000000000000000007701000079010000CE
:100040007B0100007B0100007B0100007B010000C0
:100050007B0100007B010000050200007B01000025
:10006000000000007B0100007B0100000000000098
:10007000000000007B0100007B0100007B0100000C
:100080007B0100007B0100007B0100007B01000080
:100090007B0100007B010000000000000000000068
:1000A0007B0100007B010000000000000000000058
:1000B0007B010000000000007B0100007B010000CC
:1000C00000F002F800F042F812A030C808382418F6
:1000D0002D18AC4201D100F039F80FCCA246AB4646
:1000E0000CA730CF2D1B083F3F197C427F1E544484
:1000F0002D090426F441641EAC4201D300F026F819
:100100000126334200D0FB1A3343984754465D46DC
:10011000DFE70000640F0000740F00000000000023
:100120007047000000000000002300240025002686
:10013000103A01D378C1FBD8520700D330C100D5A3
:100140000B6070471FB51FBD10B510BD00F027F83C
:100150001146FFF7F7FF00F043FE00F03FF803B44D
:10016000FFF7F2FF03BC00F045F800000648004727
:10017000FEE7FEE7FEE7FEE7FEE7FEE70348044989
:10018000024A044B70470000C100000058022020C2
:10019000580320205802202070477047704775464A
:1001A00000F024F8AE46050069465346C008C0007A
:1001B000854618B020B5FFF7E1FF60BCB6460026C3
:1001C0000027C0C5C0C5C0C5C0C5C0C5C0C5C0C565
:1001D000C0C5403D490849008D46704710B50446EA
:1001E000C046C0462046FFF7BAFF10BD0048704722
:1001F0000000202001491820ABBEFEE726000200C7
:100200007047000070B50F480068C0B2022813D1D3
:100210000E4C204600F09AF80D4E751C0540022247
:100220002046294600F066F8B54201D1094804E0AD
:1002300009480078022803D003480121017070BDED
:100240000648FAE720F85040610020200080504026
:100250000002080060002020FC002020FD0020207B
:10026000811E091F00BFFCD27047000070B5024616
:1002700000201F290DD8A24BD318074C121914685F
:100280001D680226B5431D6001238B402343136084
:1002900070BDC04370BDC046D0700000B0B503460D
:1002A00000201F2908D801258D4006495C58002AE6
:1002B00004D1AC435C50B0BDC043B0BD2C435C50D6
:1002C000B0BDC046E0700000B0B5084BC458084B44
:1002D00023408900081832CA126824040C43E90636
:1002E000214392070A43C250B0BDC046847000004B
:1002F000FCFF0000174BC150014942507047C046F7
:10030000207200000A68184BC250C018496841604A
:100310007047C04610B5054BC458002A02D18C4323
:10032000C45010BD0C43C45010BDC04654700000F2
:10033000B0B5054BC45803250D400121A9408C439D
:10034000AA402243C250B0BD5C7000000149405831
:100350007047C04650700000034A83580B608018F5
:10036000406848607047C04698700000E3494158B3
:10037000012008407047C0463922520282583F236C
:100380001340CB60930F0B6053055B0F8B60120122
:10039000120D4A60072212038058020FC3B20B618C
:1003A00003011B0F0B624A620202120FCA610203B1
:1003B000120F8A61000AC0B248617047F0B581B07F
:1003C000324A83583824A3438C69E407E40EE318C7
:1003D000CC69E407A40E1B190C6AE407240F1B194F
:1003E0008350C64BC45802221443C450C458284DED
:1003F00025400C68E407E40D64194D68ED07AD0D68
:1004000064198D68ED076D0C6419CD68ED07AD0CAE
:1004100064190D69ED07ED0C64194D69ED076D0E5A
:100420002543C5501B4BC3180024E0438E6A7F2E22
:1004300026D8CD6A7F2D23D8012500952F024D6A3D
:10044000BD421DD2D86B7F25A8433043D863C86A0C
:100450002D02DE6BAE434006400C3018D8632420DA
:10046000085C9D68FF26B54328189860086B0099C2
:10047000C9051D688D43C007000A2818186020466A
:10048000D9689143D96001B0F0BDC0460472000044
:10049000BF8CFFFF0C700000024940580221014050
:1004A0004808704708720000B0B5944C0559022303
:1004B0001D430551134C0019002A0ED08268802478
:1004C000144384600268102414430460002912D18C
:1004D000816820220A4382600DE002681024A24352
:1004E000026082688024A2438260002903D181686F
:1004F000202291438160816899438160B0BDC046EC
:100500001870000010700000F0B585B07B4A835869
:10051000022403942343835083184A68C64C784DC1
:10052000002A0ED00A682240DC6E2C401443DC66A0
:100530004A68FF242404DD6EA5431206120AAA1895
:10054000DA660493BB4A7F252B04CE68002E11D0B7
:100550008E68B94C2640049A176F694C2740374380
:100560001767CE6836041E40176F664C2740374326
:100570001767B04A861828064C6B634A002C26D0B1
:100580000C6BAD4D2C4035685D4F3D4025433560CB
:100590004C6B24041C40356817465A4A15403A46AD
:1005A000254335608C6B240604403568574F3D4029
:1005B00025433560CC6B35681540E4072C19346051
:1005C0008C6D07252C40F769AF433C19F4614C6CE6
:1005D000002C4B4F984D26D00C6C2C4035693D407B
:1005E00025433561944D4C6C24041C4013463269FC
:1005F000444F3A40424F224332618A6C1206024015
:100600003069424C204010433061C86C32691A4056
:10061000C00710183061C86DF2697024A24340070A
:10062000400E1018F061086D2840F2683A4002430D
:10063000F260486D072202921202F4699443400767
:10064000400D2018F0613F2003040406886A314AF7
:10065000002815D0486A28401546326D3A400243BA
:100660003265886A00041840326D2A4002433265C0
:10067000C86A00062040326D254D2A40024332658B
:10068000009301944A698F69BC180025E843202C27
:10069000049B2CD817432AD00869674A1040326A55
:1006A000174C22400243326248690004009A10400D
:1006B000326A184C22400243326288690006019A6D
:1006C0001040326A124C224002433262C869012251
:1006D0009207346A9443C007400820183062086AC1
:1006E000029A1040B16A91430818B062284619680E
:1006F000039A9143196005B0F0BDC0461870000020
:100700000300FFFFFFFF80FFFFFFFF7FFFFFFF8072
:10071000FFFFFFC0FFFFC0FFF0B585B006464548AC
:100720003418012906D0002900D081E0E068E16991
:100730000B0A0DE0012B05D0002B79D12068E3696D
:10074000616803E02069E1690B09616989048A0E27
:100750000A9FD44C04405807C00ED34B185850433E
:10076000850029198859C20FFA60072252070346EB
:1007700093433B604200D20FBA608000C00F7860A4
:1007800088194068C20F83B23B6143005B0E3B6235
:100790007A628202D20FFA61C202D20FBA610003FA
:1007A000000F78618200C14B9A580831042803D2A7
:1007B000002082423CD02CE0019103967019001970
:1007C0000830049002973D462E350092161F0220F5
:1007D000C043002743003A4604988058C1B2E9520A
:1007E000E91884B2240A4C80040CE4B28C80000E18
:1007F0002880101D964205D0F11908353F1F0329A6
:100800000246E9D801990918039E029F009A824284
:100810000ED08959CAB2400028373A520222024308
:100820008BB21B0ABB5204220243080CC0B2B8525E
:1008300005B0F0BDA0700000FCFF000010B5054B36
:10084000C458002A02D00C43C45010BD8C43C4507D
:1008500010BDC04658700000F0B582B04F4BC45870
:1008600002221443C450314BC3180024E043CD6826
:100870007F2D55D88E687F2E52D84E68FF2E4FD8C8
:100880000E68760A4CD17F260096760601961E6980
:10089000019FBE436D0675191D618D68009F3D4027
:1008A0001E69BE4375191D614D68FF2636021F691A
:1008B000B7432D02ADB27D191D610D681E691C4F35
:1008C0003740ED05ED097D191D61CD690F2D27D844
:1008D0008E690F2E24D84E691F2E21D80E691F2E27
:1008E0001ED818680F26B0432843186088691D6811
:1008F000F026B5430001C0B22818186048691F25CA
:100900002E021F68B743C006C00C3818186008696B
:1009100029041D688D43C006C00A281818602046A7
:10092000D9689143D96002B0F0BDC0460C70000098
:10093000FFFF00FEB0B5012212020B881340044CE9
:1009400025689543EA1822608978024A8150B0BD33
:1009500038010B4004790000B0B5024600204B0F6F
:100960000FD10E4BD21813680224234313600723C0
:100970005B07956F1D400D4395671168A14311609A
:10098000B0BDC043B0BDC04610B501221140034BFD
:10099000C45894436118C15010BDC046187000007F
:1009A000F0B583B01F4606463D483018002904D0F4
:1009B000012973D14168C902CA0E0168394D0D4041
:1009C00080684007C00E38490858504382005319C8
:1009D00003CF490701433868800708437968C9078E
:1009E000014399519819B9680904FC6824050C431E
:1009F0003969490521437C69E4050C43B969090655
:100A000021431C4641600834B8682849083F04283F
:100A100005D280000858002290423FD02BE000947D
:100A20000196B0184319083302973E462A36032030
:100A3000C14300220F4648008019448885882D0252
:100A40002543C088000428433488240604439C506E
:100A5000029800698000154C2058121D824204D073
:100A60003C1808363F1F032CE5D8009CA418019EB3
:100A7000029F904212D050002437395A022202437A
:100A8000BA5A12020A4304210143795A0904114354
:100A900006220243B85A00060843A05103B0F0BD35
:100AA000C0700000FCFF0000640F0000240F000075
:100AB000F0B584B0012422022A4B196803929143B5
:100AC000196098490D686D04FCD5457E25409E69E6
:100AD000A64374199C612024045D03252C40DE6923
:100AE000AE433419DC61204C256805262660466A31
:100AF00037681F6276685E6207262E402660C469EA
:100B00007F252D02DE69AE436406640C3419DC6176
:100B10000768456882680092C66802690192426966
:100B200002929A69114C14403A07120B2D03ADB290
:100B3000AA183243009D2D072D0D1543019A154328
:100B4000029A1543007E2843094A02401019986111
:100B50001868039A1043186008688005FCD504B033
:100B6000F0BDC04608010B40001340408D00F0FF6F
:100B700072FF0F00F0B5124B1D46083D2E68012490
:100B8000A6432E600326360330401F68B74338184B
:100B900018601868FF26B043C9B24018186028686A
:100BA0002043286018682107002A06D008431860EF
:100BB0005C480168C905FCD5F0BD88431860F0BDEC
:100BC00010010B406E498860564802689202FCD5BD
:100BD000012212040B6813430B600168C906FCD59F
:100BE0007047C046084800214162816207490160A0
:100BF000074801600749C44A0A600A638621816583
:100C00000549C1657047C046048042408100000428
:100C100094804240A0120A408600040070B58AB059
:100C20002B4801210160BA4C2A492046FFF782FE79
:100C300069462046FFF7A0FB2046FFF72DFC002861
:100C4000FAD001212046FFF79FFE2046FFF78EFBDA
:100C50000128FAD120492046FFF7B0FB1F49204662
:100C6000FFF7FAFD1E492046FFF74EFC00261D4AFD
:100C700020463146FFF728FB1B492046FFF76CFE54
:100C80000125204629462A46FFF70EFC204631461C
:100C9000FFF77AFE2046FFF769FB0028FAD11349D7
:100CA00020462A46FFF736FB1149012620463246E8
:100CB000FFF7C4FD204631462A46FFF739FB0D48B1
:100CC0000221016202680A4302600AB070BDC04698
:100CD00000F95040A40F0000A80F0000840F00008E
:100CE000DC0F00003C100000FFFFFF1F01020800A6
:100CF000FFFFEF3F28F8504009480A490A680240C0
:100D000082420BD00A680240824207D00A68024041
:100D1000824203D00A6802408242EFD17047C04647
:100D2000000B200004020B40B0B5144800240460FE
:100D30000F200002124D2968814301225002081839
:100D400028600320C043291F0B6803400B606868BC
:100D500090436860100269688143696010030A214A
:100D6000FFF708FF0748FFF7A3FE286830218843F4
:100D700028602046FFF726FFB0BDC04608030B40A1
:100D800004010B404C10000080B500F00FF8FFF795
:100D900029FFFFF7C9FFFFF741FFFFF7ADFF9420E1
:100DA000014900220A5480BD6400202080B5074814
:100DB00007494160074A5160074B59600749016084
:100DC000116019601020FFF74BFA80BD00080A403F
:100DD000030000B100280A4000E85040010000264E
:100DE00082B0FFF7D1FF424D42484349434A0D23A9
:100DF0009B04AA242C626B622B46AA62E9622863D8
:100E0000012000240821020514C52C606C60A96033
:100E1000EC602C6168613A484021016039480194D6
:100E200004703C4A3C4D02E0374838490860019E56
:100E300016700127364C204631463A46FFF7B0FD82
:100E4000204639463A46FFF729FA20463946FFF749
:100E50000DFA2E70287800280DD120BF28780028A0
:100E600009D120BF2878002805D120BF2878002884
:100E700001D120BFEEE7294E009600210126244C27
:100E800020460A463346FFF747FC2046244F3946A2
:100E9000FFF762FA20463946FFF734FA1F4A108DF1
:100EA000134B998C814213D1508DD98C81420FD133
:100EB000908D198D81420BD1D08D598D814207D1F2
:100EC00010490878401C087008789884114A01E09D
:100ED000104A167010780128A6D10B480B490861FA
:100EE00010780128A3D100BE10780028FBD19EE71E
:100EF000B00120205700790001003500560078002D
:100F000000E100E0FC0020200180000090120A4077
:100F10000080504061002020600020200801202037
:100F2000000120200000000001000000020000007D
:100F3000030000000400000005000000060000009F
:100F400007000000080000000C0000001000000076
:100F50001400000018000000200000003000000015
:100F60004000000004000000050000000600000032
:100F700007000000080000000A0000000E0000004A
:100F80001200000000000000090000000000000046
:100F90000000000000000000070000000200000048
:100FA000030000000000000000000000000000003E
:100FB0000000000000000000000000000000000031
:100FC000010000000100000001000000FF0000001F
:100FD0000A00000006000000010000000000000000
:100FE000010000003000000001000000940000003B
:100FF00002000000000000000000000007000000E8
:10100000A40000000200000003000000AA0000008D
:10101000030000000300000000000000BE0000000C
:10102000020000000300000000000000D0000000EB
:10103000070000000700000007000000000000009B
:101040000400000007000000000000000100000094
:101050000000000000000000000000000000000090
:10106000100000000000000004000000010000006B
:101070002C00C44100000000881000000000202067
:081080005803000028010000E4
:04000005000000C136
:00000001FF
