:020000040000FA
:10000000C82520208D01000091010000930100000F
:1000100000000000000000000000000000000000E0
:10002000000000000000000000000000950100003A
:10003000000000000000000097010000A92400005B
:100040009B010000E11B00009B0100009B010000E0
:100050009B010000310C0000CD0D00009B01000051
:10006000000000009B0100009B0100000000000058
:10007000000000009B010000792500001D25000004
:10008000BD240000F12400009B0100009B01000042
:100090009B0100009B010000000000000000000028
:1000A0009B0100009B010000000000000000000018
:1000B0009B010000000000009B0100009B0100006C
:1000C00000F002F800F052F812A030C808382418E6
:1000D0002D18AC4201D100F049F80FCCA246AB4636
:1000E0000CA730CF2D1B083F3F197C427F1E544484
:1000F0002D090426F441641EAC4201D300F036F809
:100100000126334200D0FB1A3343984754465D46DC
:10011000DFE70000D42F0000F42F000000000000F3
:10012000103A02D378C878C1FAD8520701D330C840
:1001300030C101D504680C60704700000000000069
:100140007047000000000000002300240025002666
:10015000103A01D378C1FBD8520700D330C100D583
:100160000B6070471FB51FBD10B510BD00F0EAFC55
:100170001146FFF7F7FF02F0E9FA00F002FD03B4C1
:10018000FFF7F2FF03BC02F0DFFA00000648004769
:10019000FEE7FEE7FEE7FEE7FEE7FEE70348044969
:1001A000044A054B70470000C1000000C80520202C
:1001B000C8252020C8152020C815202001E004C033
:1001C000091F0429FBD28B0701D50280801CC907B7
:1001D00000D00270704700290BD0C30702D0027014
:1001E000401C491E022904D3830702D50280801CCB
:1001F000891EE3E70022EEE70022DFE77047704741
:10020000704700000246C80FC00781434B0030B55D
:100210004B405B009B0D20D01923DB06C91801233E
:100220001B05994220DB0324A40704251346AB4099
:100230000BD3002B04D1EB0613409B00E34204D404
:1002400001246407002312195941FF231B05994219
:100250000BD2C9000143500F09E0CB0204D5014382
:100260000803024305D0054830BDFF21C9050843F6
:1002700030BD084607210905884330BD0000C07F16
:10028000F0B50C46871A9C410D46861A9D4103D253
:10029000C01BA141D21963410D0D1F0DC94EEC1BAE
:1002A000AE435CD07F057F0D0026002F51D02D0579
:1002B000AC46A943DD020123ED0A1B051D432023A3
:1002C0001B1B24D41746E740381871412F46E740DE
:1002D000CC199D402818314661410C0D27D161444D
:1002E0009A4013D50023401C594152000ED14008BA
:1002F000400001224B005205D34207D3052040079E
:10030000C14201D5B04900E0B0493046F0BD6B00B4
:10031000002A00D001229A181F23203C1B1B01D564
:10032000002302E0E540281871410C0DD7D00124CC
:1003300024050919C407CD0740084908E40F2843DC
:100340006144002CD5D00024401C61419A40D0D19A
:10035000CDE76A05520DD9D1C90FC907D5E79C4D24
:100360004E00002801D0012400E0002434195F0071
:10037000002A01D0012600E00026BE19954FAC42AC
:100380000CD8AE420AD8B44206D001256D05EC4225
:10039000BCD010461946F0BD9942FCD00020394629
:1003A000F0BDF0B51FB40C460F46811A9F4125469B
:1003B000861A9D4106D20125ED076F40401ABC41C7
:1003C00052187B41210D1E0D8D1BAC467D4D8D437A
:1003D0007ED075056D0D7CD00D05AE46AC431B037C
:1003E0001B0B794D52429D41202366469B1B14D323
:1003F0001746F740381800260090744160462F4693
:100400000741E41900989D402818664116D47146AA
:1004100071189A4025D5012320E093182A466A4195
:100420005200002B00D0521C1E23203E9B1B002B91
:1004300061DD3541EE1728186641E8D50018764190
:100440005B1C9A4000D3401C4B05F3181524E34075
:1004500010D3002B52D071467118D30FC01802D39D
:10046000491C05B0F0BD0123DB079A42F9D14008D1
:100470004000F6E701225205B21801D1002853D0FE
:100480000123CC0ADB029943891E002A08D1020C01
:1004900003D0020C0004103902E00246002020398B
:1004A0000023550B05D112020823550B01D152012F
:1004B0000D23550C01D112011B1DD50C01D1920049
:1004C0009B1C150D01D152005B1C2025EE1A01E08A
:1004D0002CE022E00546F54015439840CA1AE10792
:1004E00069181305C918002ABBDA03204007081849
:1004F000C10FC9070FE071466118B2E7F107400864
:100500000843711071444A000CD001235B059A42E4
:10051000A7D2C90FC9070020A3E74905490D26D175
:10052000002001E00028F4D100219AE7284D660060
:10053000002801D0012100E0002171185F00002A8D
:1005400001D0012600E00026BE19224FA94210D892
:10055000AE420ED8B14208D001256D05E94206D061
:100560001946A802414010467BE79C4201D0214633
:1005700077E70020394674E710B50C465C4005D596
:100580000124E4076340FFF70CFF10BDFFF778FE7E
:1005900010BD30B40C465C4004D50124E407634030
:1005A00030BC6DE630BCFCE670B50124E407614068
:1005B0000D465D4002D4FFF763FE70BD6340FFF758
:1005C000F0FE70BDFF0700000000F0FF0000F07FAC
:1005D0000000E0FF0000F87F1F22030C02D10F2271
:1005E000000402D0030E03D004E00020014670474F
:1005F0000002083A030F01D10001121F830F01D13D
:100600008000921E002801DB4000521E1205511886
:100610004205C012411810467047C10FC90700D0EB
:100620004042012292071143D6E701218907D3E70F
:10063000F0B58B4C0F09254689B0BD437BD01D0911
:100640002646AE43FAD00E465E402740F60F3E43A4
:10065000254071D024012142FBD0FF24AD19A40410
:100660002D1B039501252D05DB02DB0AC9022B4357
:10067000C90A29431E010901040F130F0501214373
:100680001701880B820391432D098C46A90B1E4349
:100690008A039543B30B9A0396433F09BA0B94031D
:1006A000A74302962E467E430497B6464E19D719A5
:1006B0000C460196544305977E43371B7646BF1B75
:1006C0003601B646BE0B361900967646BC0437197D
:1006D000009C01D3641C00946400002F01D001260B
:1006E0003443029E049F754366467E43049676001B
:1006F00034196E0034190094029C019E1C19664343
:10070000751BAE46069465464519059C05956C43D8
:10071000594375460891691A0191049E0146514357
:10072000A41B0491611A009C0791E10605D06109A0
:100730000122114302E072E06EE06109089D00278A
:100740002C0A2D066918049D7C412A0A2D06691879
:10075000019D6241AC0DAD026D185441079A910D97
:10076000920255196141029A644658435443069BCC
:10077000059A5A43121A131B9A0E9B015B187A4171
:10078000010B0005C3185141220A200644195A41A1
:100790009A4200D2491C01204002814203D3152312
:1007A0000226F64302E014230326F6432020C51A4E
:1007B000A9401746AF40DA400A4320460399D84083
:1007C0000914731819055118039A3843D207514078
:1007D000AC4009D00122944006D30022401C514174
:1007E000002C01D1400840001E4A934212D301223E
:1007F00003989206904207DB0520400709181A4823
:100800000143C012414004E0032040070818C10F13
:10081000C907002009B0F0BD0020F107FAE705186C
:100820000C464C4111486D42A04115D394181A460C
:100830005A410E48644290410ED301204A004005BF
:10084000824209D35A00824206D35940C90F084A4E
:10085000C90700201143DDE700200649DAE7000060
:100860000000FF07FE070000FFFFFF7F0000E0FF22
:100870000000F07F0000F87F0121C9050123411825
:1008800042001B06D3185B0E0AD0C1100722D20605
:10089000891840075242D14201D552008918704749
:1008A000090208D50146002A03D0C10FC90700205C
:1008B000704710467047420202D00020024970473C
:1008C000072109050143F4E70000F87FF0B5FF2593
:1008D0002D04C609C209FF2704462E400137CB0963
:1008E0003E4348402A402B400746002A6BD0002B4D
:1008F00069D0AA4267D0AB4265D0002800DA324600
:100900000125ED0529432C4309022002090AD21AC8
:100910004B0C7F24E31A434C000A7C44E35C7D24A7
:100920002404121914145B00A218884201D3521C2B
:1009300000E0400049420C465C4324115C43DB016B
:100940006415E318040A5C43C502200D0C464443B9
:100950006419250A5D432303EC0C0D46654300032F
:100960000019EB184C42A34201D35B18401CD4057C
:100970002018002B07D05B00C91804D3401C0029A5
:1009800001D1400840003F2189048A4209D3002A4E
:1009900008DC1106090F04D0032149074018C00FD5
:1009A000C007F0BD01224100120689187F225206BD
:1009B0009142F6D205214907C84201D59010F0BDF9
:1009C000FF20C005F0BD002F00DA32461648AA42CB
:1009D00007D2AB4205D21902090E17D0F80FC00793
:1009E000F0BDFF2563002D06AB42F9D84900A942AE
:1009F000F6D8AB4201D1A942F2D0A94201D10021DF
:100A000001E061004908D0050843F0BD1102090E5C
:100A1000FBD0FF200243D005F0BD0A460146104638
:100A200054E70000A22500000000C07F10B5014679
:100A30009E240002CA15A307002A02D01843002AE8
:100A400004DBA21A002A0CDDD04010BD1206120EE3
:100A500001D140004008A21A03D4D04040420028EF
:100A6000F3DDFF2248001206904201D9002010BD9C
:100A7000C817C043584010BD1F22030C02D10F22DB
:100A800000041CD0030E01D10002083A030F01D16B
:100A90000001121F830F01D18000921E002801DB8C
:100AA0004000521ED20551180212511819229040CE
:100AB00004D3491C002801D1490849000846704761
:100AC000C10FC90700D04042012292071143D3E76A
:100AD00001218907D0E7000010B5FF231B06440061
:100AE0009C421DD84C009C421AD80346124A0B4324
:100AF00007D4401A02D3EFF3008010BDEFF300805B
:100B000010BD081A03D3EFF30080904305E0EFF324
:100B1000008001219043C907084380F3008810BD7D
:100B20000D231B041A4204D01146002000F031F8B6
:100B300010BD00F045F810BD00000090004870475F
:100B4000200020207546FFF7F9FFAE4605006946F4
:100B50005346C008C000854618B020B5FFF71EFBFD
:100B600060BCB64600260027C0C5C0C5C0C5C0C50C
:100B7000C0C5C0C5C0C5C0C5403D490849008D4677
:100B8000704710B50446C046C0462046FFF7F7FA46
:100B900010BDC80212D54803400F002804D0C80376
:100BA000C043012188407047EFF300800001000935
:100BB00003210907084380F300887047002070472D
:100BC00010B5024800F004F810BD00000000C07F1E
:100BD00010B50C461107090F092904D00A290AD0BB
:100BE00008290CD104E011460820FFF7D2FF06E0E7
:100BF000510606D501E0510601D50120C007214666
:100C000010BDD10607D501010909CC084907000E1E
:100C10000006044309E0410F20024907000A01438E
:100C2000200E00061D22D14101430846E7E70000DF
:100C300004480068C0B2092802D1034801210170AC
:100C40007047C0462030004078012020F0B583B0C6
:100C500002920F4605460468204602F0C9F806468F
:100C6000A8608B20C105304601F0B8FF002807D1ED
:100C700063204006394602F0BBF80146204608E0F2
:100C80002749304601F094FF002806D12320410671
:100C9000304601F0BBFF0646A860EC682869019069
:100CA000EE602C613046214602F0A2F80090E9691E
:100CB000304602F045F80746A869009902F040F86E
:100CC000394601F0A3FF07462046214601F09EFF6A
:100CD0000146304602F08CF8019901F097FF014679
:100CE000286A02F02DF8394601F090FF0146686845
:100CF00001F08CFF04466860029E314601F063FFFC
:100D0000002808D10120C00746402046314601F0A6
:100D10004FFF002801D16E603446204603B0F0BD7D
:100D2000000080C5284820210160704710B5264882
:100D3000402101607A4C204600F0B8F90028FAD131
:100D4000012120460A4600F071F910BD1E4802211B
:100D50000160704701200004154908601A490860C5
:100D600001480249016070470018094030750000D1
:100D700010B50121C8030E4A1060890311600D4AA5
:100D80000D4B53600D4B93600B23D360136802240B
:100D9000234313600A4B53610A4B93611023D361C1
:100DA000136923431361084A1060116010BDC046E7
:100DB00080E200E000B2424024911040B4052020BF
:100DC000243110405804202000E100E070B51248A2
:100DD0000068C0B202281DD1514C204600F060F9D5
:100DE0000E4E31680143316031680222204600F026
:100DF00033F9306880010AD5094D2046294600F0B4
:100E00005DF92869401E4142414106480170306841
:100E100000F038F870BDC04620F850407C0120201A
:100E20001802202080002020B0B5AAB00A7801ABBB
:100E30009A844A78DA848A781A85CA785A850A792F
:100E40009A8508220592AA22099201240894002278
:100E500007920692049203920292800401904879CC
:100E6000D88588791886C87958862D4D2846114628
:100E7000224600F049FC2846214600F0BFF82AB07F
:100E8000B0BDC046F0B581B0C00744D0234C0020AF
:100E90002060234D2846214600F05AF9606800285A
:100EA00039D0204E264F06E02846214600F050F962
:100EB000606800282FD02368009601210022284670
:100EC00000F0F6FAA2682168284600F08FFC30682E
:100ED0001549884205D131462831144800F034F8CC
:100EE00030681349884205D131462831114800F055
:100EF0002BF830681049884205D1314628310F4817
:100F000000F022F83068B842CED1314628310D4881
:100F100000F01AF8C8E701B0F0BDC046F404202084
:100F2000008050400C05202004040808C204202042
:100F300002040408CA0420200A041408DA04202049
:100F40000C041808D20420204A880B881B02134383
:100F50000380CA888B881B02134343804A890B890C
:100F60001B0213438380097B81717047B0B50A78F7
:100F7000032313400B4A84580B4D2540EB18A9243A
:100F800024061B198350072212064B6813401124B4
:100F9000240205599543EA18025100194978016164
:100FA000B0BDC04608080000FCFFFF00811E091FFD
:100FB00000BFFCD270470000B0B5536894681C4372
:100FC00093892343146955691C43D3892B431B011F
:100FD00023430C01041909256D02635113785278DB
:100FE0001A43BF231A4089004018034944589C43C0
:100FF000A2184250B0BDC0461011000070B50246A4
:1010000000201F290DD82C4BD318074C1219146837
:101010001D680226B5431D6001238B4023431360E6
:1010200070BDC04370BDC046D0700000B0B503466F
:1010300000201F2908D801258D4006495C58002A48
:1010400004D1AC435C50B0BDC043B0BD2C435C5038
:10105000B0BDC046E0700000134BC1500149425082
:101060007047C0462072000010B5054BC458002AD6
:1010700002D18C43C45010BD0C43C45010BDC046B7
:1010800054700000B0B5054BC45803250D40012134
:10109000A9408C43AA402243C250B0BD5C700000FE
:1010A000014940587047C04650700000F649415809
:1010B000012008407047C04618700000F0B581B0AC
:1010C000114A82580720104053025B0E5404E40F6B
:1010D0009504ED0F0D624C628B62D304DB0F00931D
:1010E0001405E40F55056D0F1606F60F5706FF0F92
:1010F0009306DB0FD206920F8DC10E604D608C609F
:101100000098C86001B0F0BD44700000392252025E
:1011100082583F231340CB60930F0B6053055B0F46
:101120008B601201120D4A60072212038058020FD1
:10113000C3B20B6103011B0F0B624A620202120F62
:10114000CA610203120F8A61000AC0B24861704787
:10115000B0B50B680B4A002B02D0012B10D1103216
:1011600080587F2202408301DB0FC401E40F850217
:10117000AD0E8004800E4A608860CD600C614B61CA
:10118000B0BDC046A4700000F0B583B0354A8358A6
:101190003824A3438C69E407E40EE318CC69E40720
:1011A000A40E1B190C6AE407240F1B1983502E4A46
:1011B0008318DA6802242243DA60DA682B4D15407E
:1011C0000A68D207D20D52194D68ED07AD0D5219BC
:1011D0008D68ED076D0C5219CD68ED07AD0C5219F5
:1011E0000D69ED07ED0C52194D69ED076D0E1543B4
:1011F000DD600025EA438F6A7F2F2CD8CE6A7F2ED0
:1012000029D801260096360202964E6A0194029C65
:10121000A642019C1FD2164A801802687F26B2435C
:101220003A430260CA6A36020768B7435206520C54
:10123000BA1802602420085C9A68FF26B24310188E
:101240009860086B0099C9051A688A43C007000AAC
:10125000101818602A46D868A043D860104603B01A
:10126000F0BDC046047200000C700000BF8CFFFF90
:101270004870000002494058022101404808704768
:1012800008720000F0B585B07F4C0259022301932B
:101290001A4302517D4A049087184A68BF4D7E4C1C
:1012A000002A0ED00A682A403B68234013433B6063
:1012B0004A68FF231B043C689C431206120AA218CA
:1012C0003A60734A7F2420040390CE68734B002E4B
:1012D00010D08E682E407D686F4B1D406F4B35439C
:1012E0007D60CD682D04039805407E681E402E4326
:1012F000AA4D7E600498861820064C6B002C029044
:1013000028D00C6B2C40FD691A46634B1D401346D8
:10131000039A02982543FD614C6B24041440FD6937
:101320001D402543FD618C6B24060440FD695D4A28
:1013300015402543FD61CC6BFD69594A1540E40712
:101340002C19FC618C6D07252C403769AF43934DF8
:101350003C1934614C6C002C4F4F26D00C6C2C4047
:1013600075683D40254375608C4D4C6C2404039892
:10137000044072681A40224372608A6C1206029B13
:101380001A407368474C234013437360CA6C7368F8
:10139000434C2340D2079A187260CA6D3369702497
:1013A000A3435207520E9A1832610A6D2A403368DD
:1013B0003B40134333604A6D072303931B02346998
:1013C0009C435207520DA21832613F2318041F0696
:1013D0008B6A002B19D02F4B049AD4184B6A2B40E0
:1013E00025682D4A15401D4325608B6A1B04034068
:1013F00025682E4A15401D432560CB6A1B063B40DD
:101400002568294A15401D43256000900297BD4A72
:10141000049885184B698F69FA180024E043202A44
:101420002CD81F432AD00869ED4A104072691A4B24
:101430001A400243726148690004009A10407269C0
:101440001A4B1A400243726188690006029A1040E2
:101450007269154B1A4002437261C86901229207F2
:1014600073699343C007400818187061086A039AAB
:101470001040F16991430818F06120462968019AEB
:101480009143296005B0F0BD187000008470000021
:10149000AC700000F07000000300FFFFFFFF80FF52
:1014A000FFFFFF7FFFFFFF80FFFFFFC0FFFFC0FFC9
:1014B000F0B582B0DD4C0519012905D000296BD1AA
:1014C000EB68E9690C0A0DE0012B05D0002B63D114
:1014D0002B68EC69696803E02B69E9690C096969A3
:1014E00089048A0E079EBE4D1D406307DB0EBD4C6E
:1014F000E35853439A0052191358DC0FF460072441
:1015000064071D46A54335605C00E40FB4609B0092
:10151000DB0F736013185B68DC0F9DB235615D00F3
:101520006D0E356274629C02E40FF461DC02E40F1C
:10153000B4611B031C0F7461A300AB4DEB58083260
:10154000042C03D20024A3421BD125E000240190E7
:10155000054600965759390EF185F9B23185390C97
:10156000C9B2B185B9B2090A7185241F19192D1D97
:1015700008360329EED8121B64420198009EA3424C
:101580000AD0610073181158CAB21A858AB2120AB9
:101590005A85090CC9B2998502B0F0BDFCFF000064
:1015A00010B5054BC458002A02D00C43C45010BDDE
:1015B0008C43C45010BDC04658700000F0B582B0D6
:1015C000324A8218D06802231843D0600024E043D6
:1015D000CD687F2D55D88E687F2E52D84E68FF2E4D
:1015E0004FD80E68760A4CD17F2600967606019673
:1015F0001669019FBE436D06751915618D68009FC0
:101600003D401669BE43751915614D68FF263602C7
:101610001769B7432D02ADB27D1915610D681669C2
:101620001B4F3740ED05ED097D191561CD690F2D73
:1016300027D88E690F2E24D84E691F2E21D80E6907
:101640001F2E1ED810680F26B043284310608869EB
:101650001568F026B5430001C0B22818106048692B
:101660001F252E021768B743C006C00C381810603B
:101670000869290415688D43C006C00A281810603F
:101680002046D1689943D16002B0F0BD0C700000D3
:10169000FFFF00FEB0B5012212020B881340044C7C
:1016A00025689543EA1822608978024A8150B0BDC6
:1016B00038010B400479000070B5024600204B0F42
:1016C00011D1104BD318094C12191C6802252C4358
:1016D0001C6007246407166826400E4316601968CC
:1016E000A943196070BDC04370BDC0469070000032
:1016F00010B501221140034BC45894436118C150E6
:1017000010BDC04618700000F0B581B0334C04190C
:10171000002904D001295ED16168C902CA0E21687E
:101720002F4D0D40A1684907C90E2E4C61585143F9
:101730008900491914CB640714431A68920722439D
:101740005C68E40714430C500A189C682404DD68A4
:101750002D0525431C6964052C435D69ED05254372
:101760009C6924062C43546008319C681E4A083B3F
:10177000042C05D2A4001759002297421ED12AE05A
:101780000024009005461E461046B78CF28C1202CB
:101790003A43378D3F041743728D12063A434A513C
:1017A0001A6992008758241F3A192D1D0836032AFA
:1017B000EBD8091B6242009897420CD052009C184B
:1017C000A28CE38C1B021343228D12041A43638DF7
:1017D0001B0613430B5001B0F0BDC046C0700000A3
:1017E000FCFF0000402F0000002F0000B0B50F4BA1
:1017F000C5180024E343012908D0002914D1296821
:101800004902490E91420FD3094906E0296949026C
:10181000490E914208D3064910313F231A404558DA
:101820009D43AA18425023461846B0BDA070000040
:10183000A8700000B0B51122120283580C4C1C4055
:101840000B894D881D438B792B430A4D1D4063192D
:101850008350CB798C881C43097821435D239B00FE
:101860001940801842689A4351184160B0BDC04683
:1018700080CCFFFF7F33000010B5012212038318D4
:101880000C785C604978815010BD0000F0B584B0E0
:10189000012422022A4B1968039291431960494995
:1018A0000D686D04FCD5457E25409E69A6437419DC
:1018B0009C612024045D03252C40DE69AE4334196D
:1018C000DC61204C256805262660466A37681F6261
:1018D00076685E6207262E402660C4697F252D0249
:1018E000DE69AE436406640C3419DC610768456840
:1018F00082680092C66802690192426902929A69FE
:10190000114C14403A07120B2D03ADB2AA18324302
:10191000009D2D072D0D1543019A1543029A15437D
:10192000007E2843094A0240101998611868039AFA
:101930001043186008688005FCD504B0F0BDC046AF
:1019400008010B40001340408D00F0FF72FF0F00B4
:10195000F0B5124B1D46083D2E680124A6432E60AB
:101960000326360330401F68B743381818601868DC
:10197000FF26B043C9B24018186028682043286089
:1019800018682107002A06D0084318600D4801682E
:10199000C905FCD5F0BD88431860F0BD10010B40AF
:1019A00007498860074802689202FCD501221204A8
:1019B0000B6813430B600168C906FCD57047C0462D
:1019C00004010B4004020B4070B5374A82184B6883
:1019D0005360364BC3180878222857D8840001A5D5
:1019E0002C59A746831A00008D1A0000831A0000A4
:1019F0008D1A00008D1A00008D1A00008D1A00004B
:101A00008D1A00008D1A00008D1A00008D1A00003A
:101A10008D1A00008D1A00008D1A00008D1A00002A
:101A20008D1A0000711A00008D1A0000711A000052
:101A30008D1A00008D1A00008D1A00008D1A00000A
:101A40008D1A00008D1A00008D1A00008D1A0000FA
:101A50008D1A00008D1A00008D1A00008D1A0000EA
:101A60008D1A0000711A00008D1A0000711A000012
:101A7000032424071568A543012464072C19146066
:101A800004E0032424071568A54315600C69D4609D
:101A9000CC68074D25401C68064E264074191C6012
:101AA000097A0143116070BD04180000301800006D
:101AB000777702008888FDFF10B501221203831892
:101AC0000C789C604B7883508978014A815010BD16
:101AD0000C110000B0B51122120283580124A34357
:101AE00083508B780C881C438B882343094C1C4003
:101AF0008358094D1D402B1983508B79CC791C4399
:101B0000097A21437E231940801842689A4351186C
:101B10004160B0BD18670000E798FDFF10B50122D5
:101B2000120383180C789C604978815010BD000026
:101B30000120400402490860024908607047C0461D
:101B400080E200E000E100E070B5012108064B06EC
:101B500020490C46103C226892011F4A1AD516688B
:101B60001568064208D1054211D11C4D2D88166812
:101B70001E4209D16D1C08E0184E36881D4201D165
:101B8000751E02E0751C00E06D1E144E35800D6858
:101B90001D430D60246804421AD0156814681D4264
:101BA00008D11C4211D10D4B1B881268024209D189
:101BB0005A1E08E0094A1288044201D1521C02E070
:101BC000521E00E05A1C054B1A800A6802430A6044
:101BD00070BDC04648100A4080130A400200202011
:101BE00080B503480068012801D1FFF7ADFF80BD33
:101BF00030114040F0B585B004910178002255299C
:101C000000D0E8E08178477803917918C37802938F
:101C1000C91803790193C918457949198379CC18F2
:101C2000C1796418067AA419467AA4195534E4B225
:101C3000867AB44200D0CEE0503F062F00D9CAE0E9
:101C4000049E40360902C91800912902019BCD1853
:101C500002990902039C09190291C0467F443F7909
:101C60007F00BF4403551781ACB8420004990C7043
:101C7000C2784A7002798A704279CA7082790A7190
:101C8000C2794A71027A407A0123337000028018C7
:101C9000C8809EE00020049FF8630120B070009887
:101CA00000B2FEF70DFF07210395CD06294601F08E
:101CB00047F84C4C214601F043F8F861039800B214
:101CC000FEF7FEFE294601F03BF8214601F038F808
:101CD000B861029800B2FEF7F3FE294601F030F831
:101CE000214601F02DF8786173E000200499C86363
:101CF000012070712804029A80184863009800B28D
:101D00000C46FEF7DDFE3549FEF7E0FDA06360E01E
:101D10000020049FF86301207070009800B2FEF765
:101D2000CFFE0721CC06214601F00AF88321039556
:101D3000CD05294601F004F83861039800B2FEF79A
:101D4000BFFE214600F0FCFF294600F0F9FFF860D5
:101D5000029800B2FEF7B4FE214600F0F1FF2946DA
:101D600000F0EEFFB86034E00020049FF86301202B
:101D7000F070009800B2FEF7A3FE07210395CD0690
:101D8000294600F0DDFF164C214600F0D9FFB8626D
:101D9000039800B2FEF794FE294600F0D1FF2146D9
:101DA00000F0CEFF7862029800B2FEF789FE294665
:101DB00000F0C6FF214600F0C3FF386209E00020B2
:101DC0000499C86300980886CD850298888501200B
:101DD000307101223274104605B0F0BD0000C842D7
:101DE000000034430000FA44F0B581B000294ED021
:101DF0000C460546274B187827490E7827490F7857
:101E000003E0641E6D1C002C41D02978C0B2C0468E
:101E100078440079400087440411210100201870A3
:101E2000EFE7552931D101261B48067055271C487C
:101E300007701A4807701E703046E2E7F02008402D
:101E40005028EBD1F0B2164A115402201870761CBB
:101E5000114A16707F1811490F70D2E7F0B2104A7C
:101E60001154761C0C480670F0B20A2804D87F186A
:101E70000A4807700220C4E7F8B28142CED1084870
:101E80000849FFF7B7FE034BC8E70020B9E701B0E8
:101E9000F0BDC0468E0020208D0020208100202033
:101EA000820020206C04202080B52421FEF7A4F9B4
:101EB00080BD000010B510481049FFF757F81048D2
:101EC0004168104A0A4001214B04D21842608268DE
:101ED0000D4B134083600D4A11600D4A42610A02A6
:101EE0000C4B1C6A14431C621C6814431C6002687F
:101EF0000A43026010BDC04600200040602F000071
:101F000000310040FEFFECFFF8FFE0E080310040D0
:101F1000409C00002830004080B504482121016029
:101F20000A480021024AFFF747F880BD0CB2424040
:101F3000682F000080B50448042101600348012196
:101F4000034AFFF739F880BD1CB2424000A042406E
:101F5000802F000080B5FFF7DFFFFFF7EBFF80BDAC
:101F6000B0B5214A0020506290622048831D20496C
:101F70000B65431C8B638224146550658C62C862B8
:101F800083240C60D467936781239360CB638B6158
:101F9000184C4C63CC61184DD564136053604C658C
:101FA0008C65164A164B136103241460DB1C136402
:101FB0000246823A134B1C6814431C601A69124C87
:101FC00014431C61114A136A114C234313621368B2
:101FD00023431360012212050E4B1A601A648622F5
:101FE0008A66001DC866B0BD0480424082000400BD
:101FF0008480424081000C0081000D0090120A4054
:102000000000021090130A4010080F0028100A4028
:102010000002240390320A40B0B58AB0254801215D
:102020000160254C25492046FFF734FB69462046D0
:10203000FFF76CF82046FFF71DF90028FAD00121C0
:102040002046FFF755FB2046FFF730F80128FAD16C
:102050001B492046FFF798F81A492046FFF7AEFAC9
:1020600019492046FFF70EF918492046FFF724FBCF
:1020700000212046FFF73CFB2046FFF717F8002819
:10208000FAD11349012520462A46FEF7EDFF1149F2
:1020900020462A46FFF784FA204629462A46FEF7BC
:1020A000F1FF0D480221016202680A4302600AB092
:1020B000B0BDC04600F9504000805040B82F00002D
:1020C000BC2F0000982F0000F02F0000FFFFFF1F23
:1020D00001020800FFFFEF3F28F8504080B50C4890
:1020E0000C49FFF7E9FC0C480C49C1620022C267A9
:1020F0000B4B036001630B490A6003600A494160AE
:102100000A4901220A6001681143016080BDC0468E
:10211000000009405030000004180940010002008E
:10212000129200108418094030750000081109400F
:1021300010B50D4C0D492046FFF79EFB0C4920467B
:10214000FFF778FB0B4841680B4A0A40111D4160BC
:10215000816812220A432D218A438260016801228C
:102160000A43026010BDC04600A046405330000044
:102170005630000004B1464000FCFFFF70B5174820
:10218000002404600F200002154E316881430120B5
:102190004202891831600321C943321F13680B4082
:1021A0001360716881437160010272688A437260D2
:1021B00005030A2128462246FFF7CAFB0948FFF714
:1021C00065FB306810210143202081433160306875
:1021D000284330602046FFF7E3FB70BD08030B4047
:1021E00004010B4060300000084809494160FF21AC
:1021F0000906084A13688B4303218907591811609F
:1022000000218160072101607047C04610E000E0B6
:102210007F38010020ED00E010B5084C0849204649
:10222000FFF74AFC07492046FFF7CEFB0648016846
:102230000122114301600548026010BD00400840C2
:10224000883000008C3000002850084008510840B9
:1022500010B5084C08492046FFF72EFC07492046D8
:10226000FFF7B2FB064801680122114301600548EF
:10227000026010BD00808640A0300000A430000045
:10228000289086400891864010B5084C08492046A1
:10229000FFF712FC07492046FFF796FB0648016846
:1022A0000122114301600548026010BD00A0864074
:1022B000B8300000BC30000028B0864008B186402D
:1022C00010B5164C16492046FFF728FC1549204644
:1022D000FFF700FC0320C103134802688A43026031
:1022E00001692E4A0A401532026141692D220A43D2
:1022F00012218A434261426801210A4043688B43AC
:102300009A184260094A1368264C1C4314608B02D9
:10231000136302680A43026010BDC046008010408B
:10232000D0300000D23000000091104028901040C2
:1023300010B5164C16492046FFF7F0FB154920460C
:10234000FFF7C8FB0320C103134802688A430260F9
:102350000169124A0A401532026141692D220A437D
:1023600012218A434261426801210A4043688B433B
:102370009A1842600A4A13680A4C1C4314608B0284
:10238000136302680A43026010BDC046002010407B
:10239000DC300000DE300000003110400000FFFFA4
:1023A000283010400184000080B500F033F8FFF7BA
:1023B000D7FDFFF7E3FEFFF791FEFFF72DFFFFF7D5
:1023C00047FFFFF761FFFFF77BFFFFF7B1FFFFF765
:1023D000AFFEFFF76FFDFFF7BDFDFFF705FFFFF74E
:1023E0001BFE9C20064900220A5406490A5406494D
:1023F0000A54242005490A54942005490A5480BDF2
:102400000C03202044022020AC032020E4022020E2
:1024100080012020F0B581B01648174A4260174865
:102420004260174842601748426017484260174EA2
:102430007260174F7A60174C6260174B5A601749E9
:102440004A6017484260174A0A4D2A600B4D2A60BD
:102450000B4D2A600B4D2A600B4D2A6032603A60AA
:1024600022601A600A6002601020FEF79FFD01B032
:10247000F0BDC04600080A40030000B100280A4031
:1024800000080940004808400088864000A88640AF
:10249000008810400028104000A846400028004056
:1024A00000E850400100002603480168002902D0DE
:1024B0000168491E016070477401202007480068C8
:1024C000C0B2012809D106480068064908800649BB
:1024D0000A880880801A0549088070472050084003
:1024E0000018094000002020E8042020E2042020F9
:1024F00006480068C0B2012807D105480188054A8E
:1025000012880280501A0449088070472090864043
:10251000E604202002002020E4042020F0B581B051
:1025200010480068C0B2102819D10F48012101706D
:102530000E4E30680227B84330600D4C0B25204604
:102540002946FFF751FC0020A072208120606060C6
:1025500008487060B460F56030683843306001B09E
:10256000F0BDC046209010407901202000B24240CA
:10257000B405202024911040F0B581B06C4800686B
:10258000C0B2102800D0D0E06A4802680221009151
:102590008A430260684B1C78684A1578FF2D08D181
:1025A000D579FE2D05D160CA654F60C7641C1C70CB
:1025B000083A5578FF2D1BD1157AFE2D18D1641CD1
:1025C0001C705579967936027519D6793604177AC2
:1025D0003F06BE1975195A4E7560557897783F02B7
:1025E0007D19D7783F0411790906C9194919316055
:1025F0009178FF290FD1517AFE290CD1641C1C70EF
:10260000D18815892D0469184D4D568897883F0447
:10261000BE192E606960D178FF291BD1917AFE29FD
:1026200018D1641C1C70D179157A2D026918557A5D
:102630002D04967A360675196918414D6960D1786E
:102640001679360271185679360497793F06BE1905
:10265000711829601179FF2908D1D17AFE2905D195
:1026600051689568364E22C6641C1C705179FF294A
:102670001BD1117BFE2918D1641C1C70517A957AEC
:102680002D026918D57A2D04167B3606751969183E
:102690002B4D69605179967936027118D6793604D6
:1026A000177A3F06BE19711829609179FF290FD159
:1026B000517BFE290CD1641C1C70518995892D0415
:1026C00069181F4DD68817893F04BE192E606960AE
:1026D000D179FF291BD1917BFE2918D1611C19707A
:1026E000D17A137B1B025918537B1B04947B24065D
:1026F000E3185918124B5960D179147A24026118E1
:10270000547A2404957A2D062C1961181960002139
:10271000116051609160D1600A494160826010216E
:10272000C1600168009A1143016001B0F0BDC0466C
:102730002030104010B24240680120205804202070
:1027400050042020243110407047000084B0FFF76F
:102750002BFEFEF7FBFAFEF7E9FAE448FFF7A4FBCD
:10276000E348FFF7A1FBE34D2846FFF79DFBE24C52
:102770002046FFF799FBE14E3046FFF795FBE04F0F
:102780003846FFF791FBDF48DF49E04AAA61E9617B
:102790002862DF4AA261E161DE492960DE49B26157
:1027A000F161306241210906B961F861DB483060AE
:1027B000FEF7DEFAFEF7CEFAFEF7B4FAFFF7B8F945
:1027C0007D208001009001200390DB4E56E0E64919
:1027D0000870C0B28000DB490858E4490860E44949
:1027E00008602060DE480088FEF772F90146D94D86
:1027F0002A682046FEF72AFAFEF718F9E64908800B
:10280000FEF75EF9BC4F38600224D548005FFEF742
:1028100057F90146D04D2A683846FEF717FAFEF7F9
:1028200005F9DE490880DE4D6870000A2870D4483A
:102830000088FEF74DF90146C6480268AF48FEF72A
:1028400005FAFEF7F3F8D7490880FEF739F9AC4FDF
:102850003860CB48005FFEF733F90146BE48026896
:102860003846FEF7F3F9FEF7E1F8CF490880E87043
:10287000000AA870CD482946FEF7D6FAA948407943
:10288000A9490978884204D0A74908700399A74A42
:102890001170A74A1178491C1170C9B2642903D17B
:1028A00001210907A34A116001243460316800291D
:1028B00008D03168002905D03168002902D031687C
:1028C0000029F3D19949097801282FD0FF286FD129
:1028D000002975D09F48A9490160002093490870DC
:1028E00005203060A6480088FEF7F2F801469848B7
:1028F000016082480291016099480088FEF7E8F87B
:102900000546A04900F082F97A490860306800283D
:1029100008D03068002805D03068002802D0306820
:102920000028F3D18C488D4901604EE0002900D188
:102930009BE0002183480160844A4260824A8260B1
:1029400003987F4A107079480170744B8048036087
:102950006A4A13606748416167484161516168484C
:1029600041616B487B4A10607B487C4A02607C482E
:1029700002887C48101883B26948451C0120AB428C
:10298000034600D30B46511E89B2654A9142014667
:1029900000D35900744A117089006A4A5158734A29
:1029A0001160734A1160534A11606449086064E021
:1029B0000029504C00D115E700205C49087011E750
:1029C0006348006802906A48056856490857897844
:1029D0000902014308B2FDF720FE07460C462846CF
:1029E000FDF74AFF0546019138462146664A674B86
:1029F000FDF71EFE2A46019BFDF7BEFDFDF702FC1A
:102A00000746232045063846294600F0DCF8002812
:102A100000D13D4600272846394600F0ECF8002852
:102A200000D12F4652480760029D2846584C214647
:102A300000F0C9F8002806D12846564C214600F07F
:102A4000B7F8002802D142490C6025463548007885
:102A5000FF28284C00D0C5E63248C079FE2800D0B7
:102A6000C0E6264805602760BCE634490868401C7B
:102A7000086033490978012926D100998842274600
:102A800000D8002736480088FEF722F83749096841
:102A900000F0AEF90546E00785432846354900F0C9
:102AA000AAF80446401E84412846334900F08BF8BA
:102AB0000028039800D12046002803980D4C00D12F
:102AC0003846002805D18DE600998842094C00D887
:102AD00088E600201949086023490978491CCAB2D0
:102AE000022A00D973E6084671E6C046900020200D
:102AF000B40020202001202044012020D8002020E4
:102B0000FC002020CDCCCC3D9A99193E0000C84154
:102B10000000704100A0E945CDCC4C3D00D02B45D4
:102B2000A90A000050042020C0042020C104202055
:102B300068042020B0120A4074012020F0042020F4
:102B4000EA0420200400202000A8AA4500A02A456D
:102B50001800202010002020140020200000FA443B
:102B6000DA04202055F5FFFFEB042020EC042020A0
:102B70001C00202000007A440060EA45000020424A
:102B8000D2042020000016C37B14AE47E17A84BF34
:102B900000806D4500800945C0052020C405202027
:102BA00069012020C2052020C6052020FF01000069
:102BB00010B500F071F8EFF30080800001D501201E
:102BC00010BD002010BD10B500F066F8EFF30080D6
:102BD0004000800F012800D0002010BD10B500F08B
:102BE00085F8EFF300804000800F012801D001201C
:102BF00010BD002010BD10B500F078F8EFF3008094
:102C0000800001D4012010BD002010BD70B5012549
:102C1000ED0704004C4020D4441A01D2001B0919CE
:102C2000C60D4B00F2B2FF2A29D01B0E2CD0000299
:102C30000C0228432C43D31ADC40051910D2280A71
:102C400002D3401C6D0611D0761EF6058019FF2AAE
:102C500000DA70BDC00DC00570BD694000F0CEF84F
:102C600001200543C541521C761CE8E764089C40DE
:102C7000C90161408900E7D10124A043E4E71B0EAC
:102C8000440200D0034870BD002AFCD1C00FC00729
:102C900070BD00BF0000C07F0123DB0502000A43B6
:102CA0000DD4DA4203D49A4207D488427047D842FE
:102CB00014D4D94212D48842704780427047DA4215
:102CC00003D59A42F9D5814270475B004200DA424F
:102CD00004D24A00DA4201D28142704710B5024A5A
:102CE000FDF7FAFE10BD00BF090013040123DB0548
:102CF00002000A430DD4DA4203D49A4207D4884230
:102D00007047D84214D4D94212D4884270478042C6
:102D10007047DA4203D59A42F9D5814270475B0089
:102D20004200DA4204D24A00DA4201D281427047BC
:102D300010B5024AFDF7D0FE10BD00BF0900160411
:102D400070B5420064414B005C41120E39D01B0E3D
:102D500038D0FF2A3CD0FF2B3AD0D2187F3A40021D
:102D60004902400A490A4518ED0106004E43000A8F
:102D7000090A48430104731A4019190C4318990FA2
:102D800004D05B08012149075B1A521CD80904D3FF
:102D9000401CF50301D19D0607D0FF2A08D2D505B6
:102DA00006D0E4072043401970BD0125A843F4E78D
:102DB000002A01DCE00770BD2402FF202043C0058B
:102DC00070BD1B0EFF2A03D0FF2B01D0E00770BDA2
:102DD000FF2636064500B54206D84D00B54203D859
:102DE000D218FF2A00D0E7E7004870BD0000C07F7E
:102DF00070B50125ED0704004C4022D4441A02D2DC
:102E00006C40001B0919C60D4B00F2B2FF2A4BD0D3
:102E10001B0E50D000020C02A8432C43D31ADC40F6
:102E2000051B05D5AD0019D36D08761E521E37D08F
:102E3000F605280A01D2801970BD70416D0603D0D5
:102E400070BD6940FFF7E8FE9C40090261404900FF
:102E500001D0401E70BD0124A04370BD6D081DD07F
:102E600001202B0C01D12D0410302B0E01D12D028D
:102E700008302B0F01D12D01001DAB0F01D1AD008A
:102E8000801CEB0F01D16D00401C361A121A6D0028
:102E9000680AF5054019012A02DB70BD002070BDEB
:102EA000C036300AC00770BD1B0E440201D1FF2B93
:102EB00000D1024870BD002AF0D070BD0000C07F74
:102EC0008182838485868788898B8C8D8E8F919271
:102ED00093959697999A9C9D9FA0A2A3A5A7A8AA0F
:102EE000ACAEB0B2B3B5B7B9BCBEC0C2C5C7C9CC31
:102EF000CED1D4D7D9DCDFE2E6E9ECF0F3F7FAFE85
:102F000000000000010000000200000003000000BB
:102F1000040000000500000006000000070000009B
:102F2000080000000C000000100000001400000069
:102F300018000000200000003000000040000000E9
:102F4000040000000500000006000000070000006B
:102F5000080000000A0000000E000000120000003F
:102F60000105000000000003110000000000002027
:102F7000000000000000000000000000000003004E
:102F8000150000000000002000000000000000000C
:102F900000000000000003000000000044000000EA
:102FA000090000000900000000000000000000000F
:102FB0000000000000000000000100000000000010
:102FC0000000000000000000000000000000000001
:102FD00000000000010000000100000001000000EE
:102FE000FF0000000A0000000600000001000000D1
:102FF000000000000100000030000000010000009F
:10300000940000000200000000000000000000002A
:1030100007000000A4000000020000000300000000
:10302000AC000000030000000300000000000000EE
:10303000C0000000020000000300000000000000CB
:10304000D00000000700000007000000070000009B
:103050000800000800000400000000000710000045
:10306000010000000000000000000000000000005F
:10307000200000001000000000000000040000001C
:10308000000000003400C4410807F90002000000FD
:10309000CF07000001000000000000000000000059
:1030A0000807F900020000009F0F00000100000067
:1030B00000000000000000000800F900020000000D
:1030C0007F0C000001000000000000000000000074
:1030D0000800000018000000003000000800000098
:1030E000180000000030000008310000000020201F
:1030F00020000000200100002831000020002020D6
:10310000A82500004801000030753075000000005F
:1031100000A02A4500A8AA450000204200803B45A7
:0831200000D02B4500A0E94599
:04000005000000C136
:00000001FF
