:020000040000FA
:1000000080062020C5010000C9010000CB010000CE
:1000100000000000000000000000000000000000E0
:10002000000000000000000000000000CD01000002
:100030000000000000000000CF01000011220000BD
:10004000D301000085160000D3010000D301000099
:10005000D301000021060000CD070000D3010000FD
:1000600000000000D3010000D301000000000000E8
:1000700000000000D3010000892200002D220000B2
:1000800021220000D3010000D3010000D3010000B1
:10009000D3010000D30100000000000000000000B8
:1000A000D3010000D30100000000000000000000A8
:1000B000D301000000000000D3010000D3010000C4
:1000C00000F002F800F052F812A030C808382418E6
:1000D0002D18AC4201D100F049F80FCCA246AB4636
:1000E0000CA730CF2D1B083F3F197C427F1E544484
:1000F0002D090426F441641EAC4201D300F036F809
:100100000126334200D0FB1A3343984754465D46DC
:10011000DFE70000942A0000B42A0000000000007D
:10012000103A02D378C878C1FAD8520701D330C840
:1001300030C101D504680C60704700000000000069
:100140007047000000000000002300240025002666
:10015000103A01D378C1FBD8520700D330C100D583
:100160000B6070471FB51FBD10B510BD00F0E2F960
:100170001146FFF7F7FF02F041F900F0FAF903B476
:10018000FFF7F2FF03BC02F0FBF8000070B5054674
:100190000C46164602E00FCC0FC5103E102EFAD2C8
:1001A000082E02D303CC03C5083E042E07D301CC8E
:1001B00001C5361F03E021782970641C6D1C761E72
:1001C000F9D270BD06480047FEE7FEE7FEE7FEE70E
:1001D000FEE7FEE703480449044A054B7047000068
:1001E000C1000000800420208006202080052020FF
:1001F00080052020F8B5042A2CD3830712D00B7871
:10020000491C0370401C521E83070BD00B78491CFD
:100210000370401C521E830704D00B78491C0370E6
:10022000401C521E8B079B0F05D0C91ADF002023EC
:10023000DE1B08C90AE0FFF7A9FFF8BD1D4608C983
:10024000FD401C46B4402C4310C0121F042AF5D2B6
:10025000F308C91A521EF0D40B78491C0370401CD5
:10026000521EEAD40B78491C0370401C012AE4D4C6
:1002700009780170F8BD01E004C0091F0429FBD210
:100280008B0701D50280801CC90700D0027070471F
:1002900000290BD0C30702D00270401C491E02295E
:1002A00004D3830702D50280801C891EE3E7002265
:1002B000EEE70022DFE7704770477047F0B5FF2593
:1002C0002D04C609C209FF2704462E400137CB0979
:1002D0003E4348402A402B400746002A6BD0002B63
:1002E00069D0AA4267D0AB4265D0002800DA324616
:1002F0000125ED0529432C4309022002090AD21ADF
:100300004B0C7F24E31A434C000A7C44E35C7D24BD
:100310002404121914145B00A218884201D3521C41
:1003200000E0400049420C465C4324115C43DB0181
:100330006415E318040A5C43C502200D0C464443CF
:100340006419250A5D432303EC0C0D466543000345
:100350000019EB184C42A34201D35B18401CD40592
:100360002018002B07D05B00C91804D3401C0029BB
:1003700001D1400840003F2189048A4209D3002A64
:1003800008DC1106090F04D0032149074018C00FEB
:10039000C007F0BD01224100120689187F225206D3
:1003A0009142F6D205214907C84201D59010F0BD0F
:1003B000FF20C005F0BD002F00DA32461648AA42E1
:1003C00007D2AB4205D21902090E17D0F80FC007A9
:1003D000F0BDFF2563002D06AB42F9D84900A942C4
:1003E000F6D8AB4201D1A942F2D0A94201D10021F5
:1003F00001E061004908D0050843F0BD1102090E73
:10040000FBD0FF200243D005F0BD0A46014610464E
:1004100054E70000962600000000C07F10B501469A
:100420009E240002CA15A307002A02D01843002AFE
:1004300004DBA21A002A0CDDD04010BD1206120EF9
:1004400001D140004008A21A03D4D0404042002805
:10045000F3DDFF2248001206904201D9002010BDB2
:10046000C817C043584010BD1F22030C02D10F22F1
:1004700000041CD0030E01D10002083A030F01D181
:100480000001121F830F01D18000921E002801DBA2
:100490004000521ED20551180212511819229040E4
:1004A00004D3491C002801D1490849000846704777
:1004B000C10FC90700D04042012292071143D3E780
:1004C00001218907D0E7000010B5FF231B06440077
:1004D0009C421DD84C009C421AD80346124A0B433A
:1004E00007D4401A02D3EFF3008010BDEFF3008071
:1004F00010BD081A03D3EFF30080904305E0EFF33B
:10050000008001219043C907084380F3008810BD93
:100510000D231B041A4204D01146002000F031F8CC
:1005200010BD00F045F810BD000000900048704775
:10053000100020207546FFF7F9FFAE46050069461A
:100540005346C008C000854618B020B5FFF742FEEC
:1005500060BCB64600260027C0C5C0C5C0C5C0C522
:10056000C0C5C0C5C0C5C0C5403D490849008D468D
:10057000704710B50446C046C0462046FFF7FFFD51
:1005800010BDC80212D54803400F002804D0C8038C
:10059000C043012188407047EFF30080000100094B
:1005A00003210907084380F3008870470020704743
:1005B00010B5024800F004F810BD00000000C07F34
:1005C00010B50C461107090F092904D00A290AD0D1
:1005D00008290CD104E011460820FFF7D2FF06E0FD
:1005E000510606D501E0510601D50120C00721467C
:1005F00010BDD10607D501010909CC084907000E35
:100600000006044309E0410F20024907000A0143A4
:10061000200E00061D22D14101430846E7E70000F5
:1006200004480068C0B2092802D1034801210170C2
:100630007047C0462030004068012020F0B583B0EC
:1006400002920F4605460468204602F043F906462A
:10065000A8608B20C105304602F03CF8002807D185
:1006600063204006394602F035F90146204608E08D
:100670002749304602F018F8002806D12320410609
:10068000304602F035F80646A860EC68286901900B
:10069000EE602C613046214602F01CF90090E969B9
:1006A000304602F0BFF80746A869009902F0BAF890
:1006B000394602F01DF807462046214602F018F898
:1006C0000146304602F006F9019902F011F80146A0
:1006D000286A02F0A7F8394602F00AF8014668686D
:1006E00002F006F804466860029E314601F0E7FF1A
:1006F000002808D10120C00746402046314601F0BD
:10070000D3FF002801D16E603446204603B0F0BD0F
:10071000000080C5254820210160704710B523489E
:10072000402101607E4C204600F0C0F90028FAD13B
:10073000012120460A4600F079F910BD1B4802212C
:1007400001607047012000041249086017490860E1
:100750007047C04610B50121C8030E4A10608903D6
:1007600011600D4A0D4B53600D4B93600B23D3600A
:1007700013680224234313600A4B53610A4B9361AD
:100780000C23D361136923431361084A106011607D
:1007900010BDC04680E200E000B24240249110400B
:1007A0006C042020243110402003202000E100E0D0
:1007B000054800218183016041608160C160016161
:1007C000416181617047C046FC02202070B512482B
:1007D0000068C0B202281DD1514C204600F060F9DB
:1007E0000E4E31680143316031680222204600F02C
:1007F00033F9306880010AD5094D2046294600F0BA
:100800005DF92869401E4142414106480170306847
:1008100000F038F870BDC04620F850406C01202030
:10082000A802202070002020B0B5AAB00A7801AB41
:100830009A844A78DA848A781A85CA785A850A7935
:100840009A8508220592AA2209920124089400227E
:1008500007920692049203920292800401904879D2
:10086000D88588791886C87958862D4D284611462E
:10087000224600F049FC2846214600F0BFF82AB085
:10088000B0BDC046F0B581B0C00744D0234C0020B5
:100890002060234D2846214600F05AF96068002860
:1008A00039D0204E264F06E02846214600F050F968
:1008B000606800282FD02368009601210022284676
:1008C00000F0F6FAA2682168284600F08FFC306834
:1008D0001549884205D131462831144800F034F8D2
:1008E00030681349884205D131462831114800F05B
:1008F0002BF830681049884205D1314628310F481D
:1009000000F022F83068B842CED1314628310D4887
:1009100000F01AF8C8E701B0F0BDC046AC032020D3
:1009200000805040C40320200404080884032020D1
:10093000020404088C0320200A0414089C032020CD
:100940000C041808940320204A880B881B021343C8
:100950000380CA888B881B02134343804A890B8912
:100960001B0213438380097B81717047B0B50A78FD
:10097000032313400B4A84580B4D2540EB18A92440
:1009800024061B198350072212064B6813401124BA
:10099000240205599543EA1802510019497801616A
:1009A000B0BDC04608080000FCFFFF00811E091F03
:1009B00000BFFCD270470000B0B5536894681C4378
:1009C00093892343146955691C43D3892B431B0125
:1009D00023430C01041909256D02635113785278E1
:1009E0001A43BF231A4089004018034944589C43C6
:1009F000A2184250B0BDC0461011000070B50246AA
:100A000000201F290DD82C4BD318074C121914683D
:100A10001D680226B5431D6001238B4023431360EC
:100A200070BDC04370BDC046D0700000B0B5034675
:100A300000201F2908D801258D4006495C58002A4E
:100A400004D1AC435C50B0BDC043B0BD2C435C503E
:100A5000B0BDC046E0700000134BC1500149425088
:100A60007047C0462072000010B5054BC458002ADC
:100A700002D18C43C45010BD0C43C45010BDC046BD
:100A800054700000B0B5054BC45803250D4001213A
:100A9000A9408C43AA402243C250B0BD5C70000004
:100AA000014940587047C04650700000F64941580F
:100AB000012008407047C04618700000F0B581B0B2
:100AC000114A82580720104053025B0E5404E40F71
:100AD0009504ED0F0D624C628B62D304DB0F009323
:100AE0001405E40F55056D0F1606F60F5706FF0F98
:100AF0009306DB0FD206920F8DC10E604D608C60A5
:100B00000098C86001B0F0BD447000003922520264
:100B100082583F231340CB60930F0B6053055B0F4C
:100B20008B601201120D4A60072212038058020FD7
:100B3000C3B20B6103011B0F0B624A620202120F68
:100B4000CA610203120F8A61000AC0B2486170478D
:100B5000B0B50B680B4A002B02D0012B10D110321C
:100B600080587F2202408301DB0FC401E40F85021D
:100B7000AD0E8004800E4A608860CD600C614B61D0
:100B8000B0BDC046A4700000F0B583B0354A8358AC
:100B90003824A3438C69E407E40EE318CC69E40726
:100BA000A40E1B190C6AE407240F1B1983502E4A4C
:100BB0008318DA6802242243DA60DA682B4D154084
:100BC0000A68D207D20D52194D68ED07AD0D5219C2
:100BD0008D68ED076D0C5219CD68ED07AD0C5219FB
:100BE0000D69ED07ED0C52194D69ED076D0E1543BA
:100BF000DD600025EA438F6A7F2F2CD8CE6A7F2ED6
:100C000029D801260096360202964E6A0194029C6B
:100C1000A642019C1FD2164A801802687F26B24362
:100C20003A430260CA6A36020768B7435206520C5A
:100C3000BA1802602420085C9A68FF26B243101894
:100C40009860086B0099C9051A688A43C007000AB2
:100C5000101818602A46D868A043D860104603B020
:100C6000F0BDC046047200000C700000BF8CFFFF96
:100C7000487000000249405802210140480870476E
:100C800008720000F0B585B07F4C02590223019331
:100C90001A4302517D4A049087184A68BF4D7E4C22
:100CA000002A0ED00A682A403B68234013433B6069
:100CB0004A68FF231B043C689C431206120AA218D0
:100CC0003A60734A7F2420040390CE68734B002E51
:100CD00010D08E682E407D686F4B1D406F4B3543A2
:100CE0007D60CD682D04039805407E681E402E432C
:100CF000AA4D7E600498861820064C6B002C02904A
:100D000028D00C6B2C40FD691A46634B1D401346DE
:100D1000039A02982543FD614C6B24041440FD693D
:100D20001D402543FD618C6B24060440FD695D4A2E
:100D300015402543FD61CC6BFD69594A1540E40718
:100D40002C19FC618C6D07252C403769AF43934DFE
:100D50003C1934614C6C002C4F4F26D00C6C2C404D
:100D600075683D40254375608C4D4C6C2404039898
:100D7000044072681A40224372608A6C1206029B19
:100D80001A407368474C234013437360CA6C7368FE
:100D9000434C2340D2079A187260CA6D336970249D
:100DA000A3435207520E9A1832610A6D2A403368E3
:100DB0003B40134333604A6D072303931B0234699E
:100DC0009C435207520DA21832613F2318041F069C
:100DD0008B6A002B19D02F4B049AD4184B6A2B40E6
:100DE00025682D4A15401D4325608B6A1B0403406E
:100DF00025682E4A15401D432560CB6A1B063B40E3
:100E00002568294A15401D43256000900297BD4A78
:100E1000049885184B698F69FA180024E043202A4A
:100E20002CD81F432AD00869ED4A104072691A4B2A
:100E30001A400243726148690004009A10407269C6
:100E40001A4B1A400243726188690006029A1040E8
:100E50007269154B1A4002437261C86901229207F8
:100E600073699343C007400818187061086A039AB1
:100E70001040F16991430818F06120462968019AF1
:100E80009143296005B0F0BD187000008470000027
:100E9000AC700000F07000000300FFFFFFFF80FF58
:100EA000FFFFFF7FFFFFFF80FFFFFFC0FFFFC0FFCF
:100EB000F0B582B0DD4C0519012905D000296BD1B0
:100EC000EB68E9690C0A0DE0012B05D0002B63D11A
:100ED0002B68EC69696803E02B69E9690C096969A9
:100EE00089048A0E079EBE4D1D406307DB0EBD4C74
:100EF000E35853439A0052191358DC0FF460072447
:100F000064071D46A54335605C00E40FB4609B0098
:100F1000DB0F736013185B68DC0F9DB235615D00F9
:100F20006D0E356274629C02E40FF461DC02E40F22
:100F3000B4611B031C0F7461A300AB4DEB58083266
:100F4000042C03D20024A3421BD125E000240190ED
:100F5000054600965759390EF185F9B23185390C9D
:100F6000C9B2B185B9B2090A7185241F19192D1D9D
:100F700008360329EED8121B64420198009EA34252
:100F80000AD0610073181158CAB21A858AB2120ABF
:100F90005A85090CC9B2998502B0F0BDFCFF00006A
:100FA00010B5054BC458002A02D00C43C45010BDE4
:100FB0008C43C45010BDC04658700000F0B582B0DC
:100FC000324A8218D06802231843D0600024E043DC
:100FD000CD687F2D55D88E687F2E52D84E68FF2E53
:100FE0004FD80E68760A4CD17F2600967606019679
:100FF0001669019FBE436D06751915618D68009FC6
:101000003D401669BE43751915614D68FF263602CD
:101010001769B7432D02ADB27D1915610D681669C8
:101020001B4F3740ED05ED097D191561CD690F2D79
:1010300027D88E690F2E24D84E691F2E21D80E690D
:101040001F2E1ED810680F26B043284310608869F1
:101050001568F026B5430001C0B228181060486931
:101060001F252E021768B743C006C00C3818106041
:101070000869290415688D43C006C00A2818106045
:101080002046D1689943D16002B0F0BD0C700000D9
:10109000FFFF00FEB0B5012212020B881340044C82
:1010A00025689543EA1822608978024A8150B0BDCC
:1010B00038010B400479000070B5024600204B0F48
:1010C00011D1104BD318094C12191C6802252C435E
:1010D0001C6007246407166826400E4316601968D2
:1010E000A943196070BDC04370BDC0469070000038
:1010F00010B501221140034BC45894436118C150EC
:1011000010BDC04618700000F0B581B0334C041912
:10111000002904D001295ED16168C902CA0E216884
:101120002F4D0D40A1684907C90E2E4C61585143FF
:101130008900491914CB640714431A6892072243A3
:101140005C68E40714430C500A189C682404DD68AA
:101150002D0525431C6964052C435D69ED05254378
:101160009C6924062C43546008319C681E4A083B45
:10117000042C05D2A4001759002297421ED12AE060
:101180000024009005461E461046B78CF28C1202D1
:101190003A43378D3F041743728D12063A434A5142
:1011A0001A6992008758241F3A192D1D0836032A00
:1011B000EBD8091B6242009897420CD052009C1851
:1011C000A28CE38C1B021343228D12041A43638DFD
:1011D0001B0613430B5001B0F0BDC046C0700000A9
:1011E000FCFF0000242A0000E4290000B0B50F4BEA
:1011F000C5180024E343012908D0002914D1296827
:101200004902490E91420FD3094906E02969490272
:10121000490E914208D3064910313F231A404558E0
:101220009D43AA18425023461846B0BDA070000046
:10123000A8700000B0B51122120283580C4C1C405B
:101240000B894D881D438B792B430A4D1D40631933
:101250008350CB798C881C43097821435D239B0004
:101260001940801842689A4351184160B0BDC04689
:1012700080CCFFFF7F33000010B5012212038318DA
:101280000C785C604978815010BD0000F0B584B0E6
:10129000012422022A4B196803929143196049499B
:1012A0000D686D04FCD5457E25409E69A6437419E2
:1012B0009C612024045D03252C40DE69AE43341973
:1012C000DC61204C256805262660466A37681F6267
:1012D00076685E6207262E402660C4697F252D024F
:1012E000DE69AE436406640C3419DC610768456846
:1012F00082680092C66802690192426902929A6904
:10130000114C14403A07120B2D03ADB2AA18324308
:10131000009D2D072D0D1543019A1543029A154383
:10132000007E2843094A0240101998611868039A00
:101330001043186008688005FCD504B0F0BDC046B5
:1013400008010B40001340408D00F0FF72FF0F00BA
:10135000F0B5124B1D46083D2E680124A6432E60B1
:101360000326360330401F68B743381818601868E2
:10137000FF26B043C9B2401818602868204328608F
:1013800018682107002A06D0084318600D48016834
:10139000C905FCD5F0BD88431860F0BD10010B40B5
:1013A00007498860074802689202FCD501221204AE
:1013B0000B6813430B600168C906FCD57047C04633
:1013C00004010B4004020B40F0B582B07B4E844A0E
:1013D0008518894A821801923B4A83180A794C7908
:1013E0003A4F012C26D1202A04D00524E401002AFA
:1013F00003D003E0364C002A00D188249E683E408A
:1014000026439E60DE683E402643DE60AC686D4E3B
:101410003440AC60EC683440EC600024019EB46061
:10142000F4608F24E4439E6926409E61DE69264075
:10143000DE61624E80198E790C68202A009208D0F5
:10144000191D002A15D1641E44601A683A40882488
:1014500015E0611E4160196839401D4A1143196049
:10146000596839401143596001214C07194F014611
:1014700007E0620842601A683A400524E40122430A
:101480001A600A683A4022430A6029684D4A1140AE
:1014900029606968114069600021019A11605160FA
:1014A0008F21C9431A690A401A615A690A405A6170
:1014B00000990E43BD2131400268074B1340C91803
:1014C000891C016002B0F0BD7018000024493E0084
:1014D00001040000FFFFFFCF4000FFCF70B5374A87
:1014E00082184B6853603E4BC3180878222857D89F
:1014F000840001A52C59A74697150000A1150000EE
:1015000097150000A1150000A1150000A11500000D
:10151000A1150000A1150000A1150000A1150000F3
:10152000A1150000A1150000A1150000A1150000E3
:10153000A1150000A115000085150000A1150000EF
:1015400085150000A1150000A1150000A1150000DF
:10155000A1150000A1150000A1150000A1150000B3
:10156000A1150000A1150000A1150000A1150000A3
:10157000A1150000A115000085150000A1150000AF
:1015800085150000032424071568A543012464077A
:101590002C19146004E0032424071568A543156082
:1015A0000C69D460CC68064D25401C68054E264069
:1015B00074191C60097A0143116070BD04180000A1
:1015C000777702008888FDFF10B507239B04194038
:1015D00092008018024A84589C436118815010BDC3
:1015E0003018000010B5029CA400001911431943E3
:1015F000014A815010BDC04650180000920080186A
:10160000014A81507047C0461018000010B50122F1
:10161000120383180C789C604B7883508978014AB8
:10162000815010BD0C110000B0B511221202835878
:101630000124A34383508B780C881C438B8823435D
:10164000094C1C408358094D1D402B1983508B7940
:10165000CC791C43097A21437E23194080184268C3
:101660009A4351184160B0BD18670000E798FDFF2C
:1016700010B50122120383180C789C6049788150C0
:1016800010BD0000B0B50E480068012816D10D4805
:10169000016889020BD40D4800F0A0F9012004056F
:1016A000EE4D2C61E22000F081FE2C60B0BD0068A0
:1016B000400303D50120000703490860B0BDC046C0
:1016C0003011404080130A40B0120A40FC02202032
:1016D000F0B58BB0002900D15DE1B04A1278B04B73
:1016E0001F78B04B1D7804E0491E401C002900D132
:1016F00051E10378D2B2C0467A441279520097443D
:10170000051425010022A54B1A70EDE7552B00D0DA
:1017100082E00127A24A17705525A34A1570A14AF5
:1017200015709E4A17703A46DEE7F0221A40502A9A
:10173000E8D1FAB29C4CA3540222984C22707F1C30
:10174000974C2770ED18974B1D70CDE7FAB2964C69
:10175000A3547F1C924A1770FAB20A2A04D8ED18D3
:10176000904A15700222BFE70A95EAB2934200D070
:101770000CE18D4A1278552A00D007E18A4DAA78EB
:101780006B7809929A18EC78089412192C790794BE
:1017900012196C7906941419AA790592A618EC7995
:1017A00036192A7A0492B6186A7A0392B618553610
:1017B000F6B2AA7A7D4D964200D0E7E0503B062B68
:1017C00000D9E3E02202059E92190092069A1202C5
:1017D000079E92190192089A1202099E921902928A
:1017E0007B441B795B009F4403621993C3D149007A
:1017F00040220123AB546C71059A2A71069AEA7053
:10180000079AAA70089A6A70099A2A70039A1202B3
:10181000049BD218EA80B6E0002265E74222012349
:10182000AB540022EA63009A12B209901046089164
:10183000FEF73EFE0721CE06314600F0F3FF5E4C78
:10184000214600F0EFFFE861019800B2FEF730FE9C
:10185000314600F0E7FF214600F0E4FFA86102985E
:1018600000B2FEF725FE314600F0DCFF214600F015
:10187000D9FF0899024609986A6184E0452201234C
:10188000AB540022EA63019A1204029BD2186A63E5
:10189000009A12B2044610460E46FEF709FE44496D
:1018A000FEF70CFD314602462046AA636BE041225A
:1018B0000123AB540022EA63009A12B20990104649
:1018C0000891FEF7F5FD0721CC06214600F0AAFF9E
:1018D0008321CE05314600F0A5FF2861019800B2B2
:1018E000FEF7E6FD214600F09DFF314600F09AFF2D
:1018F000E860029800B2FEF7DBFD214600F092FF9F
:10190000314600F08FFF089902460998AA603AE034
:1019100043220123AB540022EA63009A12B20990D9
:1019200010460891FEF7C4FD0721CE06314600F0AF
:1019300079FF204C214600F075FFA862019800B2A3
:10194000FEF7B6FD314600F06DFF214600F06AFF5C
:101950006862029800B2FEF7ABFD314600F062FF0C
:10196000214600F05FFF0899024609982A620AE0C2
:1019700044220123AB540022EA63009A2A86019A8A
:10198000EA85029AAA8550220123AB540022034B18
:101990001A700A9DA8E60BB0F0BDC0467E0020205C
:1019A0007D002020710020207200202030032020A4
:1019B0000000C842000034430000FA4405480221F8
:1019C000016001204104044A11600005BC4908601F
:1019D0007047C04600E100E0A0120A40F0B581B0B7
:1019E000044601200605B64F3E61072000F0DEFCEC
:1019F000FF2000F0DBFC05463E603E61272000F042
:101A0000D5FC284600F0D2FC3E60680601D40027D1
:101A100021E03E61602000F0C9FCFF2000F0C6FC20
:101A2000394607460E600E61612000F0BFFC002FB2
:101A300007D03D46FF2000F0B9FC2070641C6D1EED
:101A4000F8D1F04C26602661E22000F0AFFCFF20C8
:101A500000F0ACFC2660384601B0F0BD90320A4080
:101A6000F0B583B07D2080000190012007050020A3
:101A70000290284CE34E3761302000F097FCA525FA
:101A8000284600F093FC284600F090FC284600F021
:101A90008DFC284600F08AFC284600F087FC376061
:101AA0003761102000F082FCFF26304600F07EFCFB
:101AB0002070304600F07AFC6070304600F076FC12
:101AC000A070304600F072FCE070304600F06EFC12
:101AD0002071CC48076020786840617869400143F4
:101AE000A07868400843E178694001432079684064
:101AF00008430006029E0BD0012E09D8019D2846FE
:101B000000F040FC284600F03DFC761C0296B1E750
:101B100003B0F0BDA403202080B52421FEF7C9FB4B
:101B200080BD0000F0B583B00122029250045049FC
:101B300008601405B34F3C610725284600F036FCC9
:101B400006463C603C61272000F030FC70203043AA
:101B500000F02CFC3C603C61284600F027FC3C6017
:101B60003C613C2000F022FC029E304600F01EFC4E
:101B70003C603C613D2000F019FC284600F016FC5A
:101B80003C603C611C2000F011FCFF25284600F061
:101B90000DFC3C603C611D2000F008FC284600F074
:101BA00005FC3C603C61202000F000FC0A2000F0B5
:101BB000FDFB3C603C61212000F0F8FB304600F06A
:101BC000F5FB3C603C61222000F0F0FB304600F069
:101BD000EDFB3C603C61232000F0E8FB032000F0BB
:101BE000E5FB3C603C61242000F0E0FB284600F06F
:101BF000DDFB3C603C61252000F0D8FB002000F0BC
:101C0000D5FB3C603C612625284600F0CFFB2846EA
:101C100000F0CCFB3C603C61302000F0C7FB34207E
:101C2000019000F0C3FB4326304600F0BFFB1025B7
:101C3000284600F0BBFB284600F0B8FB029800F0F5
:101C4000B5FB3C603C612A2000F0B0FB019800F03D
:101C5000ADFB304600F0AAFB284600F0A7FB284663
:101C600000F0A4FB029800F0A1FB3C6003B0F0BDC3
:101C700090120A40F0B581B005460120009006059B
:101C8000604F3E61002000F091FBFF2000F08EFBD2
:101C9000044639463E60012D04D0002D04D1FE20BB
:101CA000044001E0009804430D460E61202000F03E
:101CB0007DFB204600F07AFB2E6001B0F0BDC046EF
:101CC00090320A4010B510481049FEF74FFE1048F8
:101CD0004168104A0A4001214B04D21842608268D0
:101CE0000D4B134083600D4A11600D4A42610A0298
:101CF0000C4B1C6A14431C621C6814431C60026871
:101D00000A43026010BDC04600200040442A000083
:101D100000310040FEFFECFFF8FFE0E080310040C2
:101D2000409C00002830004080B50448212101601B
:101D30000A480021024AFEF73FFE80BD0CB2424035
:101D40004C2A000080B504480421016003480121A9
:101D5000034AFEF731FE80BD1CB2424000A0424063
:101D6000642A000080B5FFF7DFFFFFF7EBFF80BDBF
:101D700070B51C4C0020E06120621B488721816304
:101D80000121CA05194B1A608225A564184AE2642C
:101D9000056142618325A5676567551C2567812517
:101DA00025604562134C44600560C4611C46303CAC
:101DB000114E26601E602B01104C25681D432560C6
:101DC00009239B040E4C256A1D43256225681D438B
:101DD000256009050B4B1960196486210165111DE9
:101DE000416570BD0C8042409C804240D0120A4048
:101DF0008200040081000C0000000210A0130A40C1
:101E000028100A4090320A40B0B58AB02548012116
:101E10000160254C25492046FFF73CF969462046DC
:101E2000FEF774FE2046FEF725FF0028FAD00121B8
:101E30002046FFF75DF92046FEF738FE0128FAD16B
:101E40001B492046FEF7A0FE1A492046FFF7B6F8C8
:101E500019492046FEF716FF18492046FFF72CF9CE
:101E600000212046FFF744F92046FEF71FFE002818
:101E7000FAD11349012520462A46FEF7F5FD1149FE
:101E800020462A46FFF78CF8204629462A46FEF7C8
:101E9000F9FD0D480221016202680A4302600AB09E
:101EA000B0BDC04600F95040008050409C2A000060
:101EB000A02A00007C2A0000D42A0000FFFFFF1F98
:101EC00001020800FFFFEF3F28F85040B0B582B094
:101ED000134C14492046FFF799FB13492046FFF79E
:101EE00073FA12480168124A0A4002600025009500
:101EF000204629462A462B46FFF774FB20462946F2
:101F00002A46FFF761FB7D20C10020462A46FFF7E5
:101F100075FB084801218160016002B0B0BDC04678
:101F200000A08640342B0000382B000004B8864007
:101F30007F00FFFF00B1864010B50D4C0D492046D3
:101F4000FFF79AF90C492046FFF774F90B484168EE
:101F50000B4A0A40111D4160816812220A432D215B
:101F60008A438260016801220A43026010BDC046B4
:101F700000A04640402B0000422B000004B1464028
:101F800000FCFFFF70B51748002404600F2000021A
:101F9000154E3168814301204202891831600321C6
:101FA000C943321F13680B4013607168814371602D
:101FB000010272688A43726005030A21284622469C
:101FC000FFF7C6F90948FFF761F9306810210143AE
:101FD0002020814331603068284330602046FFF77D
:101FE000DFF970BD08030B4004010B404C2B0000CF
:101FF000084809494160FF210906084A13688B43D4
:1020000003218907591811600021816007210160AF
:102010007047C04610E000E07F38010020ED00E08E
:1020200010B5084C08492046FFF7F0FA074920464A
:10203000FFF754FA06480168012211430160054880
:10204000026010BD00400840742B0000782B000097
:10205000285008400851084010B5164C1649204633
:10206000FFF706FB15492046FFF7DEFA0320C10300
:10207000134802688A43026001692E4A0A401532F9
:10208000026141692D220A4312218A43426142685A
:1020900001210A4043688B439A184260094A136839
:1020A000264C1C4314608B02136302680A430260CF
:1020B00010BDC046008010408C2B00008E2B00000D
:1020C000009110402890104010B5164C164920463B
:1020D000FFF7CEFA15492046FFF7A6FA0320C10301
:1020E000134802688A4302600169124A0A401532A5
:1020F000026141692D220A4312218A4342614268EA
:1021000001210A4043688B439A1842600A4A1368C7
:102110000A4C1C4314608B02136302680A4302607A
:1021200010BDC04600201040982B00009A2B0000E4
:10213000003110400000FFFF2830104001840000F3
:1021400080B500F027F8FFF713FEFFF71BFFFFF73E
:10215000BDFEFFF765FFFFF77FFFFFF7B5FFFFF756
:10216000EBFEFFF7AFFDFFF7FDFDFFF741FFFFF7C8
:102170004BFE2420044900220A549C2003490A549F
:10218000942003490A5480BDD40220200802202054
:1021900070012020F0B581B01248134A4260134804
:1021A000426013484260134C6260134D6A60134EE4
:1021B0007260134F7A6013494A6013484260134AB1
:1021C000084B1A60094B1A60094B1A6022602A609A
:1021D00032603A600A6002601020FEF7E7FB01B04F
:1021E000F0BDC04600080A40030000B100280A40C4
:1021F00000A8864000480840008810400028104091
:1022000000A846400028004000E850400100002699
:1022100064480168002902D00168491E01607047C6
:10222000014800687047C04620500840F0B581B0B2
:1022300010480068C0B2102819D10F480121017060
:102240000E4E30680227B84330600D4C0B252046F7
:102250002946FFF73DFA0020A072208120606060CF
:1022600008487060B460F56030683843306001B091
:10227000F0BDC046209010406901202000B24240CD
:102280006C04202024911040F0B581B037480068DC
:10229000C0B2102868D1364C2068022100918843D2
:1022A000206034480778344E75793078FF2809D19A
:1022B000FE2D07D1E94830490622FDF79BFF7F1C20
:1022C0002C4807707078FF280AD1B079FE2807D112
:1022D000711CE2480622FDF78DFF7F1C2548077020
:1022E000B078FF280AD1F079FE2807D1B11CDB486D
:1022F0000622FDF77FFF7F1C1E480770F078FF283D
:102300000AD1307AFE2807D1F11CD4480622FDF705
:1023100071FF7F1C174807703079FF280AD1707A47
:10232000FE2807D1311DCD480622FDF763FF7F1C33
:1023300010480770FF2D0AD1B07AFE2807D1711D11
:10234000C6480622FDF756FF781C0A49087000208F
:1023500030607060B06009486060A6600C20E0608A
:10236000206800990843206001B0F0BD2030104083
:1023700010B2424058012020200320202431104078
:1023800070470000B14908600868002808D0086854
:10239000002805D00868002802D008680028F3D17A
:1023A0007047C0466401202070470000124908634E
:1023B0007D20C2000B68DB060BD5130409D00B6827
:1023C000DB0606D50B68DB0603D5121F0B68DB06A0
:1023D000F0D48200086A0B68DB060BD5130409D021
:1023E0000B68DB0606D50B68DB0603D5121F0B68EE
:1023F000DB06F0D4C0B2704710B1464082B0FFF7A0
:102400009FFEFEF79BF9FEF789F98548FFF784FBED
:102410008448FFF781FB844D2846FFF77DFB834C02
:102420002046FFF779FB824E3046FFF775FB814F60
:102430003846FFF771FB80488049814AAA61E9610B
:10244000286241231B06A361E0617E4C2C60B261CF
:10245000F1613062BB61F8617B483060FEF77AF968
:10246000FEF770F9FEF756F97D200001774C2060E9
:102470002068002808D02068002805D0206800289F
:1024800002D020680028F3D1FFF78EFFFFF796FAFD
:10249000FFF7E6FAFFF746FB01252846FFF7EAFBC0
:1024A0006E4E01954AE0764E3088FEF709F80146F7
:1024B0005D48744AFEF7C2F8FDF7B0FF7249088024
:1024C000FDF7F6FF594F38600225705FFDF7F0FF0A
:1024D00001466E4802683846FEF7B0F8FDF79EFFE9
:1024E0006B4908806B4E7070000A30706A48008833
:1024F000FDF7E6FF01464E48624AFEF79FF8FDF7FA
:102500008DFF66490880FDF7D3FF4A4F3860624867
:10251000405FFDF7CDFF01465C4802683846FEF794
:102520008DF8FDF77BFF5E490880F070000AB070FF
:102530005C483146494EFEF777F9019D25604449D4
:102540000878401C08702168002908D021680029FB
:1025500005D02168002902D021680029F3D1C0B23A
:1025600032280BD13B480078002807D0FEF720F92D
:102570000020374908702807374908607057B1783C
:102580000902014308B2FDF793FF354900F04AF90B
:10259000344F396800F0ACF80546386003203056F7
:1025A00031790902014308B2FDF782FF2E4900F09C
:1025B00039F92E4E316800F09BF807463060284606
:1025C0002B4E314600F07BF8002806D12846294ED4
:1025D000314600F069F8002802D122490E603546E4
:1025E0003846254E314600F06AF8002806D13846B4
:1025F000224E314600F058F8002802D11B490E60E7
:102600003746164E3078FF2800D04CE77079FE2808
:1026100000D048E7064807600348056043E7C04626
:1026200080002020A4002020100120203401202040
:10263000C8002020EC002020CDCCCC3DCDCC4C3DA2
:10264000000070410080544500B0334564012020F3
:102650002C032020FC022020B0120A401A03202064
:102660006F1283BB080020206F12833B04002020E0
:1026700000506F4500B031450080534500401C4577
:102680009C0320200000204278042020000020200D
:102690007C04202059012020940320207A0420204B
:1026A0007E042020FF01000010B500F067F8EFF372
:1026B0000080800001D5012010BD002010BD10B5A4
:1026C00000F05CF8EFF300804000800F012800D09C
:1026D000002010BD10B500F07BF8EFF30080400043
:1026E000800F012801D0012010BD002010BD000086
:1026F00070B50125ED0704004C4020D4441A01D2E6
:10270000001B0919C60D4B00F2B2FF2A29D01B0E7F
:102710002CD000020C0228432C43D31ADC400519AC
:1027200010D2280A02D3401C6D0611D0761EF60581
:102730008019FF2A00DA70BDC00DC00570BD694068
:1027400000F0CEF801200543C541521C761CE8E795
:1027500064089C40C90161408900E7D10124A0437D
:10276000E4E71B0E440200D0034870BD002AFCD1F0
:10277000C00FC00770BD00BF0000C07F0123DB0594
:1027800002000A430DD4DA4203D49A4207D48842A5
:102790007047D84214D4D94212D48842704780423C
:1027A0007047DA4203D59A42F9D5814270475B00FF
:1027B0004200DA4204D24A00DA4201D28142704732
:1027C00010B5024AFDF780FE10BD00BF09001304DA
:1027D0000123DB0502000A430DD4DA4203D49A42F6
:1027E00007D488427047D84214D4D94212D48842C0
:1027F000704780427047DA4203D59A42F9D5814248
:1028000070475B004200DA4204D24A00DA4201D249
:102810008142704710B5024AFDF756FE10BD00BF59
:102820000900160470B5420064414B005C41120E71
:1028300039D01B0E38D0FF2A3CD0FF2B3AD0D2180B
:102840007F3A40024902400A490A4518ED01060054
:102850004E43000A090A48430104731A4019190C2F
:102860004318990F04D05B08012149075B1A521CD9
:10287000D80904D3401CF50301D19D0607D0FF2AD7
:1028800008D2D50506D0E4072043401970BD0125C4
:10289000A843F4E7002A01DCE00770BD2402FF2012
:1028A0002043C00570BD1B0EFF2A03D0FF2B01D0B3
:1028B000E00770BDFF2636064500B54206D84D003C
:1028C000B54203D8D218FF2A00D0E7E7004870BD10
:1028D0000000C07F70B50125ED0704004C4022D4F4
:1028E000441A02D26C40001B0919C60D4B00F2B20B
:1028F000FF2A4BD01B0E50D000020C02A8432C43E1
:10290000D31ADC40051B05D5AD0019D36D08761E22
:10291000521E37D0F605280A01D2801970BD7041C9
:102920006D0603D070BD6940FFF7E8FE9C400902C8
:102930006140490001D0401E70BD0124A04370BD1C
:102940006D081DD001202B0C01D12D0410302B0E51
:1029500001D12D0208302B0F01D12D01001DAB0F2D
:1029600001D1AD00801CEB0F01D16D00401C361A67
:10297000121A6D00680AF5054019012A02DB70BDC4
:10298000002070BDC036300AC00770BD1B0E440267
:1029900001D1FF2B00D1024870BD002AF0D070BDDC
:1029A0000000C07F8182838485868788898B8C8D97
:1029B0008E8F919293959697999A9C9D9FA0A2A392
:1029C000A5A7A8AAACAEB0B2B3B5B7B9BCBEC0C2D9
:1029D000C5C7C9CCCED1D4D7D9DCDFE2E6E9ECF06B
:1029E000F3F7FAFE00000000010000000200000002
:1029F00003000000040000000500000006000000C5
:102A000007000000080000000C000000100000009B
:102A1000140000001800000020000000300000003A
:102A20004000000004000000050000000600000057
:102A300007000000080000000A0000000E0000006F
:102A4000120000000105000000000003110000005A
:102A50000000002000000000000000000000000056
:102A6000000003001500000000000020000000002E
:102A70000000000000000000000003000000000053
:102A800044000000090000000900000000000000F0
:102A90000000000000000000000000000001000035
:102AA0000000000000000000000000000000000026
:102AB0000000000000000000010000000100000014
:102AC00001000000FF0000000A00000006000000F6
:102AD00001000000000000000100000030000000C4
:102AE000010000009400000002000000000000004F
:102AF0000000000007000000A40000000200000029
:102B000003000000AC000000030000000300000010
:102B100000000000C00000000200000003000000F0
:102B200000000000D00000000700000007000000C7
:102B30000700000008000100E80300000000010099
:102B40000800040000000000071000000100000061
:102B50000000000000000000000000002000000055
:102B60001000000000000000040000000000000051
:102B70003400C4410807F9000200000013000000FF
:102B8000010000000000000000000000080000003C
:102B900018000000003000000800000018000000CD
:102BA0000030000000000000C82B000000002020C2
:102BB0001000000020010000D82B00001000202091
:102BC000700600004801000000007A4400B0334560
:082BD0000080544500000000E4
:04000005000000C136
:00000001FF
